{
  "_format": "hh-sol-artifact-1",
  "contractName": "Hackathon",
  "sourceName": "contracts/Hackathon.sol",
  "abi": [
    {
      "inputs": [],
      "name": "findWinner",
      "outputs": [
        {
          "components": [
            {
              "internalType": "string",
              "name": "title",
              "type": "string"
            },
            {
              "internalType": "uint256[]",
              "name": "ratings",
              "type": "uint256[]"
            }
          ],
          "internalType": "struct Hackathon.Project",
          "name": "",
          "type": "tuple"
        }
      ],
      "stateMutability": "view",
      "type": "function"
    },
    {
      "inputs": [
        {
          "internalType": "string",
          "name": "_title",
          "type": "string"
        }
      ],
      "name": "newProject",
      "outputs": [],
      "stateMutability": "nonpayable",
      "type": "function"
    },
    {
      "inputs": [
        {
          "internalType": "uint256",
          "name": "_idx",
          "type": "uint256"
        },
        {
          "internalType": "uint256",
          "name": "_rating",
          "type": "uint256"
        }
      ],
      "name": "rate",
      "outputs": [],
      "stateMutability": "nonpayable",
      "type": "function"
    }
  ],
  "bytecode": "0x608060405234801561001057600080fd5b50610c0f806100206000396000f3fe608060405234801561001057600080fd5b50600436106100415760003560e01c806343bebfbf146100465780638e71decb14610062578063e1cac57b14610080575b600080fd5b610060600480360381019061005b91906104ec565b61009c565b005b61006a6100ec565b60405161007791906106be565b60405180910390f35b61009a60048036038101906100959190610745565b610322565b005b600082815481106100b0576100af610792565b5b90600052602060002090600202016001018190806001815401808255809150506001900390600052602060002001600090919091909150555050565b6100f4610428565b6100fc610428565b6000805b60008054905081101561031957600080600090505b6000838154811061012957610128610792565b5b9060005260206000209060020201600101805490508110156101a7576000838154811061015957610158610792565b5b9060005260206000209060020201600101818154811061017c5761017b610792565b5b90600052602060002001548261019291906107f0565b9150808061019f90610824565b915050610115565b5060008083815481106101bd576101bc610792565b5b906000526020600020906002020160010180549050826101dd919061089b565b90508381111561030457809350600083815481106101fe576101fd610792565b5b9060005260206000209060020201604051806040016040529081600082018054610227906108fb565b80601f0160208091040260200160405190810160405280929190818152602001828054610253906108fb565b80156102a05780601f10610275576101008083540402835291602001916102a0565b820191906000526020600020905b81548152906001019060200180831161028357829003601f168201915b50505050508152602001600182018054806020026020016040519081016040528092919081815260200182805480156102f857602002820191906000526020600020905b8154815260200190600101908083116102e4575b50505050508152505094505b5050808061031190610824565b915050610100565b50819250505090565b6000604051806040016040528084848080601f016020809104026020016040519081016040528093929190818152602001838380828437600081840152601f19601f820116905080830192505050505050508152602001600067ffffffffffffffff8111156103945761039361092c565b5b6040519080825280602002602001820160405280156103c25781602001602082028036833780820191505090505b50815250908060018154018082558091505060019003906000526020600020906002020160009091909190915060008201518160000190816104049190610b07565b506020820151816001019080519060200190610421929190610442565b5050505050565b604051806040016040528060608152602001606081525090565b82805482825590600052602060002090810192821561047e579160200282015b8281111561047d578251825591602001919060010190610462565b5b50905061048b919061048f565b5090565b5b808211156104a8576000816000905550600101610490565b5090565b600080fd5b600080fd5b6000819050919050565b6104c9816104b6565b81146104d457600080fd5b50565b6000813590506104e6816104c0565b92915050565b60008060408385031215610503576105026104ac565b5b6000610511858286016104d7565b9250506020610522858286016104d7565b9150509250929050565b600081519050919050565b600082825260208201905092915050565b60005b8381101561056657808201518184015260208101905061054b565b60008484015250505050565b6000601f19601f8301169050919050565b600061058e8261052c565b6105988185610537565b93506105a8818560208601610548565b6105b181610572565b840191505092915050565b600081519050919050565b600082825260208201905092915050565b6000819050602082019050919050565b6105f1816104b6565b82525050565b600061060383836105e8565b60208301905092915050565b6000602082019050919050565b6000610627826105bc565b61063181856105c7565b935061063c836105d8565b8060005b8381101561066d57815161065488826105f7565b975061065f8361060f565b925050600181019050610640565b5085935050505092915050565b600060408301600083015184820360008601526106978282610583565b915050602083015184820360208601526106b1828261061c565b9150508091505092915050565b600060208201905081810360008301526106d8818461067a565b905092915050565b600080fd5b600080fd5b600080fd5b60008083601f840112610705576107046106e0565b5b8235905067ffffffffffffffff811115610722576107216106e5565b5b60208301915083600182028301111561073e5761073d6106ea565b5b9250929050565b6000806020838503121561075c5761075b6104ac565b5b600083013567ffffffffffffffff81111561077a576107796104b1565b5b610786858286016106ef565b92509250509250929050565b7f4e487b7100000000000000000000000000000000000000000000000000000000600052603260045260246000fd5b7f4e487b7100000000000000000000000000000000000000000000000000000000600052601160045260246000fd5b60006107fb826104b6565b9150610806836104b6565b925082820190508082111561081e5761081d6107c1565b5b92915050565b600061082f826104b6565b91507fffffffffffffffffffffffffffffffffffffffffffffffffffffffffffffffff8203610861576108606107c1565b5b600182019050919050565b7f4e487b7100000000000000000000000000000000000000000000000000000000600052601260045260246000fd5b60006108a6826104b6565b91506108b1836104b6565b9250826108c1576108c061086c565b5b828204905092915050565b7f4e487b7100000000000000000000000000000000000000000000000000000000600052602260045260246000fd5b6000600282049050600182168061091357607f821691505b602082108103610926576109256108cc565b5b50919050565b7f4e487b7100000000000000000000000000000000000000000000000000000000600052604160045260246000fd5b60008190508160005260206000209050919050565b60006020601f8301049050919050565b600082821b905092915050565b6000600883026109bd7fffffffffffffffffffffffffffffffffffffffffffffffffffffffffffffffff82610980565b6109c78683610980565b95508019841693508086168417925050509392505050565b6000819050919050565b6000610a046109ff6109fa846104b6565b6109df565b6104b6565b9050919050565b6000819050919050565b610a1e836109e9565b610a32610a2a82610a0b565b84845461098d565b825550505050565b600090565b610a47610a3a565b610a52818484610a15565b505050565b5b81811015610a7657610a6b600082610a3f565b600181019050610a58565b5050565b601f821115610abb57610a8c8161095b565b610a9584610970565b81016020851015610aa4578190505b610ab8610ab085610970565b830182610a57565b50505b505050565b600082821c905092915050565b6000610ade60001984600802610ac0565b1980831691505092915050565b6000610af78383610acd565b9150826002028217905092915050565b610b108261052c565b67ffffffffffffffff811115610b2957610b2861092c565b5b610b3382546108fb565b610b3e828285610a7a565b600060209050601f831160018114610b715760008415610b5f578287015190505b610b698582610aeb565b865550610bd1565b601f198416610b7f8661095b565b60005b82811015610ba757848901518255600182019150602085019450602081019050610b82565b86831015610bc45784890151610bc0601f891682610acd565b8355505b6001600288020188555050505b50505050505056fea2646970667358221220d338acc1bfe5c3a22128560958a3f5bdf69b5bee1da6d2c6bc36ea824ee1d7b464736f6c63430008110033",
  "linkReferences": {},
  "deployedLinkReferences": {}
}